{
  "contractName": "TotoroToken",
  "abi": [
    {
      "constant": true,
      "inputs": [],
      "name": "totalSupply",
      "outputs": [
        {
          "name": "",
          "type": "uint256"
        }
      ],
      "payable": false,
      "stateMutability": "view",
      "type": "function"
    },
    {
      "inputs": [],
      "payable": false,
      "stateMutability": "nonpayable",
      "type": "constructor"
    }
  ],
  "bytecode": "0x608060405234801561001057600080fd5b506404a817c800600081905550609e8061002b6000396000f300608060405260043610603f576000357c0100000000000000000000000000000000000000000000000000000000900463ffffffff16806318160ddd146044575b600080fd5b348015604f57600080fd5b506056606c565b6040518082815260200191505060405180910390f35b600054815600a165627a7a7230582073d24809f4e9b862d7b3b0dde9ccbfb92f69e30f482cdd0d3c60b1bff77ef9dc0029",
  "source": "pragma solidity ^0.4.2;\r\n\r\ncontract TotoroToken {\r\n     //Constructor\r\n     //Set the total number of tokens\r\n     // Read the total number of tokens\r\n     uint256 public totalSupply;\r\n\r\n     function TotoroToken () public {\r\n       totalSupply = 20000000000;\r\n       \r\n     }\r\n}\r\n",
  "sourcePath": "C:\\Users\\skril\\token_sale\\token_sale\\contracts\\TotoroToken.sol",
  "compiler": {
    "name": "solc",
    "version": "0.4.24+commit.e67f0147.Emscripten.clang"
  },
  "schemaVersion": "2.0.0",
  "updatedAt": "2018-05-31T00:47:08.898Z"
}